:020000040002F8
:10600000B0580020C1630200C9630200CB630200E4
:10601000CD630200CF630200D163020000000000E4
:10602000000000000000000000000000D363020038
:10603000D563020000000000D7630200D9630200AC
:10604000DD660200DB6302007D6A0200DB630200A2
:10605000DB630200DB63020079650200DB630200A0
:10606000DB630200DB630200DB630200DB63020030
:10607000DB630200DB630200DB630200DB63020020
:10608000DB63020035670200DB630200DB630200B2
:10609000DB630200DB63020045670200DB63020092
:1060A000DB630200DB630200DB630200DB630200F0
:1060B000DB630200DB630200000000000000000060
:1060C000DB630200DB630200DB630200DB630200D0
:1060D000DB630200DB630200DB6302000000000000
:1060E00000000000000000000000000000000000B0
:1060F00000000000000000000000000000000000A0
:10610000000000000000000000000000000000008F
:10611000000000000000000000000000000000007F
:10612000000000000000000000000000000000006F
:10613000000000000000000000000000000000005F
:10614000000000000000000000000000000000004F
:10615000000000000000000000000000000000003F
:10616000000000000000000000000000000000002F
:10617000000000000000000000000000000000001F
:10618000000000000000000000000000000000000F
:1061900000000000000000000000000000000000FF
:1061A00000000000000000000000000000000000EF
:1061B00000000000000000000000000000000000DF
:1061C00000000000000000000000000000000000CF
:1061D00000000000000000000000000000000000BF
:1061E00000000000000000000000000000000000AF
:1061F000000000000000000000000000000000009F
:10620000DFF80CD000F07AF90048004725B302000F
:10621000B058002030B450E8012F93B2C489234411
:106220008489A34228BF1B1B0489A34202BFBFF37A
:106230002F8F002007E0C3EA020340E80134002C5E
:10624000E9D14FF001000A6030BC704750E8012FDF
:10625000C2EA024240E801210029F7D1704730B478
:1062600050E8022F1FFAA2F3C488A34202BFBFF373
:106270002F8F00200DE0C48923448489A34228BFC6
:106280001B1BC2EA034340E80234002CE8D14FF064
:1062900001000A6030BC704750E8022FC2EA224277
:1062A00040E802210029F7D17047034653E8022F46
:1062B000D988B2EB324F4FF0000017BF92B241EADB
:1062C000014142EA014104E05A68B2EB324F08BF93
:1062D000012043E80212002AE8D1704730B4044696
:1062E00054E8000F0D4644E80053002BF8D1156028
:1062F00030BC704730B4044654E8000F40EA010552
:1063000044E80053002BF7D1156030BC704730B41F
:10631000044654E8000F00EA010544E80053002B4E
:10632000F7D1156030BC704730B4044654E8000F14
:1063300080EA010544E80053002BF7D1156030BC1A
:10634000704730B4044654E8000F00EB010544E800
:106350000053002BF7D1156030BC704730B40446B1
:1063600054E8000FA0EB010544E80053002BF7D1DF
:10637000156030BC704770B404464FF0000054E81C
:10638000006F0D68AE4207BF44E80023012044E8D7
:1063900000630E60002B1CBF0020F0E770BC70474C
:1063A00030B4044654E8000F88422CBF451A054615
:1063B00044E80053002BF5D1156030BC7047000055
:1063C0000648804706480047FEE7FEE7FEE7FEE78F
:1063D000FEE7FEE7FEE7FEE7FEE7FEE76567020091
:1063E000016202002DE9F05F0546002092469B46BF
:1063F00088460646814640241BE0284641464746DB
:10640000224600F06BF853465A46C01A914110D309
:1064100011461846224600F016F82D1A67EB0108BF
:106420004F4622460120002100F00DF817EB00092D
:106430004E41201EA4F10104DFDC484631462A46C5
:106440004346BDE8F09F202A04DB203A00FA02F11F
:10645000002070479140C2F1200320FA03F3194352
:106460009040704700487047F422030040EA01035F
:106470009B0703D009E008C9121F08C0042AFAD2FA
:1064800003E011F8013B00F8013B521EF9D27047BE
:10649000D2B201E000F8012B491EFBD27047002266
:1064A000F6E710B513460A4604461946FFF7F0FF13
:1064B000204610BD421C10F8011B0029FBD1801A98
:1064C000704730B504460020034600E05B1C934251
:1064D00003D2E05CCD5C401BF8D030BD202A04DB49
:1064E000203A21FA02F00021704721FA02F3D0404D
:1064F000C2F120029140084319467047064C074DEF
:1065000006E0E06840F0010394E807009847103483
:10651000AC42F6D3FFF778FE98390300B839030090
:1065200070B58C1810F8015B15F0070301D110F855
:10653000013B2A1106D110F8012B03E010F8016B82
:1065400001F8016B5B1EF9D12B0705D40023521E05
:106550000DD401F8013BFAE710F8013BCB1A921C6D
:1065600003E013F8015B01F8015B521EF9D5A1426B
:10657000D8D3002070BD00002DE9F04700268AB076
:10658000DFF85091B0464FF48075012437460696E7
:10659000284605F02BFF38B1D9F80403204203D078
:1065A000284605F019FF26432D1D64007F1CADB25F
:1065B000082FEDD34FF4BE74204605F017FF48B105
:1065C000204605F009FF46F0004606AA01210020FA
:1065D00005F0EEFE404D16F0FF0F15D00127002408
:1065E00037420DD009EB8401D1F81005D1F8101510
:1065F000C0F3042055F82420C1F3014102B19047B3
:106600007F00641C082CEBD3002E5FDA4FF0FF30C4
:10661000CDF8108054E0281910F8507F90F9000050
:1066200027F0C008401C3BD007A9404605F020F9E0
:1066300010B34FEA9719404602F0F0FA55F820706F
:106640001FB1B9F1030F03D006E0B9F1030F27D151
:1066500004A9404605F014F94FF0A04101EB880071
:10666000D0F8000706A9C0F3014A404605F000F93A
:1066700018B1BAF1020F03D012E0BAF1030F0FD133
:10668000B9F1030F08D1BAF1020F1DD00221404623
:1066900005F072FE761CF6B217B149464046B8477F
:1066A000641C042CB7D3002E10D06A4601210020B0
:1066B00005F07EFE06990098884207D0069004985F
:1066C000002634460790A6E70321E0E70AB0BDE8BC
:1066D000F0870000006000408C30002070B54FF45F
:1066E0008076304605F008FA114CB50560B13046A9
:1066F00005F009FA0120C5F80803607920B90120E6
:1067000060712168002088474FF48276304605F09A
:10671000F3F900280AD0304605F0F5F90220C5F853
:1067200008032168BDE870400120084770BD0000E3
:10673000BC25002002490248091F09680068084773
:106740002026002010B50021054A084600F0D8FB9D
:10675000002803D0BDE8104000F0C6BB10BD00000B
:1067600059720200F0B5B4480023021D0178101DD3
:1067700001254FF0805406290BD11678360708D131
:106780000678C6F30316032E06D0042E04D0052E79
:1067900002D0062907D00EE0B4F82463A74FC6F351
:1067A00004263E6002E01678360704D10678C6F368
:1067B0000316032E02D0062904D00FE0A14FA04EED
:1067C0007E670EE01678360708D10678C6F3031602
:1067D000032E06D0042E04D0052E02D0062907D0A1
:1067E0000EE0D4F84462984FC6F342363E6002E0B1
:1067F0001678360704D10678C6F30316032E02D0A6
:10680000062906D011E0914E376827F0807737606F
:106810000EE01678360708D10678C6F30316032E65
:1068200006D0042E04D0052E02D006290AD011E08D
:106830004FF08046C6F80C31C6F81031824E361F34
:10684000336002E01678360704D10678C6F30316E3
:10685000032E02D0062905D00CE07B4F03266437B7
:106860003E600AE01678360704D10678C6F30316B0
:10687000032E02D006290DD014E0754F05263E6088
:10688000734E78363560724E083633603F263F1DB2
:106890003E6002E01678360704D10678C6F3031688
:1068A000052E02D0062957D062E06A4E36686A4F3C
:1068B0003E60684E361D36683F1D3E60654E0836A8
:1068C00036683F1D3E60634E0C3636683F1D3E60A5
:1068D000604E103636683F1D3E605E4E1436366898
:1068E0003F1D3E605B4E183636685B4F20373E607A
:1068F000584E1C3636683F1D3E60564E2036366870
:106900003F1D3E60534E243636683F1D3E60514E5B
:10691000283636683F1D3E604E4E2C3636683F1D89
:106920003E604C4E303636684B4F40373E60494EE5
:10693000343636683F1D3E60464E383636683F1D59
:106940003E60444E3C3636683F1D3E60414E403608
:1069500036683F1D3E6002E01678360708D106789B
:10696000C6F30316032E06D0042E04D0052E02D043
:10697000062907D019E0D4F85812384A01F04F011F
:10698000116002E0117809070FD10078C0F30310FD
:10699000032803D0042801D0052806D13048016817
:1069A000C90702D06FF001010160D4F83001062858
:1069B00008D1D4F83401062804D12A48016841F4EA
:1069C0008061016021487438016841F47001016000
:1069D000BFF34F8FBFF36F8F4FF01021D1F800023C
:1069E000002803DBD1F80402002821DA1E4A1560D2
:1069F0001E480468002CFCD01524C1F8004205682C
:106A0000002DFCD0C1F8044201680029FCD01360BD
:106A100001680029FCD0BFF34F8F0C48F0380168A3
:106A2000134A01F4E06111430160BFF34F8FFEE7A9
:106A3000114910480860F0BDE00F00F040350140FA
:106A40000DF0ADBA00C007403C050040FCED00E091
:106A5000105600400404001020C50040E40E004021
:106A6000000400403C17004004E5014000E4014000
:106A70000400FA050090D00350220020014800686D
:106A800000470000C425002002E008C8121F08C10A
:106A9000002AFAD170477047002001E001C1121F9F
:106AA000002AFBD1704700000121202803DA814031
:106AB0000548014003E0402802DA2038814009B14E
:106AC0000120704700207047FC06FFBD2DE9F84308
:106AD000804643F2020659B9694607F0E1FFB04229
:106AE00002D008B100F000FA9DF80000800744D4FD
:106AF0000021404607F0DEFF05003ED0112D3CD0BE
:106B00001F482049401AC708022000EB07440D2DFA
:106B10000AD00B2D1DD0B5421FD11B49204642463D
:106B2000BDE8F84305F028BE20464246174905F067
:106B300023FE1321404676DF00281ED006F00EFA11
:106B4000024601B020464346BDE8F04310A105F0DF
:106B50001ABE204642461C49E2E7284606F0FEF9E6
:106B60000246012000EB0740434618A105F00BFE4A
:106B70002846BDE8F84300F0B7B9BDE8F883000047
:106B8000003A0300C8390300682B0300F42A03000D
:106B900073645F626C655F6761705F646973636F84
:106BA0006E6E65637428292072657475726E6564F3
:106BB000202573206F6E20636F6E6E5F68616E6458
:106BC0006C652025642E0000B42B030041737365AF
:106BD0007274696E672E20706D5F636F6E6E5F7387
:106BE000656375726528292072657475726E6564B7
:106BF000202573206F6E20636F6E6E5F68616E6418
:106C00006C652025642E000010B560B159B1027882
:106C10000B785208B2EB530F05D10622401C491CD9
:106C2000FFF74FFC08B1002010BD012010BD800708
:106C300001D00020704701207047C3688B4206D8FE
:106C400011440069491E814201D80120704700208B
:106C5000704790F82400012801D01F207047EE20D3
:106C6000704710B501220221002001F095FD08B106
:106C7000072810D107220221012001F08DFD08B163
:106C8000072808D100210A22084601F085FD08B135
:106C9000072800D1002010BD10B5ACB0AC2168466B
:106CA000FFF7FDFB02218DF80010012405208DF86F
:106CB00002408DF803001A480590ADF8104000F529
:106CC000C67009903C2269461648FFF7CFFB0020AA
:106CD0008DF879408DF87A408DF87B0020902190D6
:106CE0002820229040F6B8308DF87C4023908DF813
:106CF0007D40A020249044F2506025900A482990BD
:106D00000A482A9069460A4800F0D2FC08B100F00F
:106D1000EBF80121064800F0C6FC2CB010BD0000C5
:106D2000602200200C2C002005D70200AD76020066
:106D3000D827002010B510B108F012FD06E00120A0
:106D40000AF0C1FD0321054800F093FD002803D09F
:106D5000BDE8104000F0C8B810BD0000D8270020E2
:106D600070B58CB015460E4600236C46C3F10F017A
:106D7000415CE1545B1C102BF8D30D2104F1100091
:106D8000FFF78DFB0020C0F10F02315C2244401C54
:106D900011740328F7D3684646DF0020C0F10F01C5
:106DA000214491F820102954401C0328F6D30CB03C
:106DB00070BD022001F002BC0149C97800F038BF63
:106DC0004825002070B50024064D06E068680121C2
:106DD00010F8340006F024F9641C28788442F5D3B6
:106DE000002070BDD0250020F8B516460C4605469B
:106DF0000A2A01D20720F8BD06F00CFA18B906F0ED
:106E0000D3F90028F7D1134F102113487D603C704F
:106E1000BE60FFF744FB0020C7E904000F4E0DE001
:106E200005EBC4003168009181788DF8011000787D
:106E30000B4A694606F046F90028DCD1641EE4B22C
:106E4000EED2BDE8F84005480021064A001D00F0DA
:106E5000E3B80000D025002058310020581F03005F
:106E600065A302003D92020072B605F017FD00BF57
:106E700005F064FB0028FBD110481149401AC408F2
:106E8000012000EB04400FA105F072FC10480068DF
:106E9000C00700D000BE022000EB04400DA105F0A9
:106EA00067FCBFF34F8F0A48E43801680D4A01F4CC
:106EB000E06111430160BFF34F8FFEE7783A0300B2
:106EC000C8390300466174616C206572726F72008C
:106ED000F0ED00E053797374656D2072657365742D
:106EE000000000000400FA050EB500210091CDE974
:106EF00001106A4644F20100FFF7B6FF0EBD000024
:106F00002DE9F84F254C8146924660880E46814215
:106F100041D800274FF6FF788DF80070684600F0E2
:106F2000D3F822786078A188884201DA401C00E01A
:106F30000020C0B2904204D19DF8000000F0E8F8B3
:106F400027E065786078884201DA401C00E0002084
:106F500060709DF8000000F0DBF8454519D0A0688E
:106F6000B9F1000F40F835A00DD066B16188E06836
:106F7000324605FB01004946FFF778FAA06800EBAE
:106F8000C500868002E000EBC50087800020BDE8D8
:106F9000F88F0420FBE70920F9E70000E82500202E
:106FA00010B50E4C03E0401C00E00020207020785B
:106FB0006178814210D022786188E068A36802FB82
:106FC000010003EBC20153F83220898890472078F2
:106FD000A1888842E9DAE6E710BD0000E825002034
:106FE00030B5CB0008339DB293074FF0000401D0B9
:106FF000072030BD044B9A602A44DA605C701C7034
:1070000058809980002030BDE8250020014802F01A
:107010007CB90000002600203AB1006801294261D5
:1070200000D0002101610020704707207047000058
:1070300038B5114808235822416800910F4900686B
:1070400004F013FB002815D10D4A69460D4802F0E3
:1070500061F904000ED101210A4802F0D2F901239E
:10706000094A1946074802F028F90649012008395B
:107070000870204638BD0000601F030078310020F2
:107080001D01030000260020FFFF7F0070B50446AD
:10709000007F0D4608B1002070BDA26103F048F9E1
:1070A000401941F10001C4E90201206900B12561E4
:1070B0002146BDE8704000200AF0C4B80146002017
:1070C000087701200AF0BEB830B5EFF3108172B630
:1070D0000D4A9468012324B10370002900D162B6DF
:1070E00030BD93604FF0E023D3F88051074C25402A
:1070F0001560C3F88041D3F8844154605A17C3F82F
:10710000842100220270E8E7D0310020FC06FFBD98
:107110000B498A68002A11D000280FD1EFF31080A4
:1071200072B60B684FF0E022C2F800314B68C2F82B
:10713000043100228A60002800D162B67047000046
:10714000D03100202DE9F041064608680C46411C6C
:107150004FF0A0474FF0010506D005FA00F1C7F83F
:107160000815206805F0F4F86068411C02D0002181
:1071700005F0DCF83168A069C1F82405607D227D46
:1071800031681043C1F86C05D4E900123068C0F8CA
:107190001425C0F80C15207D012815D1A068411CCC
:1071A00002D0002105F0C2F8E068411C05D08540FE
:1071B000C7F80855E06805F0CBF8D4E9021230684A
:1071C000C0F80825C0F81015BDE8F0812DE9F041A0
:1071D000064608680C46411C4FF0A0474FF00105D9
:1071E00006D005FA00F1C7F80815206805F0BAF8CE
:1071F0006068411C02D0002105F0A1F83168A06947
:10720000C1F82405607D217D32680843C2F86C0511
:10721000D4E900123068C0F80C15C0F81425207DA0
:10722000012815D1A068411C02D0002105F087F883
:10723000E068411C05D08540C7F80855E06805F0B6
:1072400091F8D4E902123068C0F80825C0F810158A
:10725000BDE8F08103F036BF05F0CEBD2DE9F04763
:10726000814605884A484FF000088AB001784246B6
:10727000284600F0F5FC99F80500400701D40021EC
:1072800076E005F58077B8B205AB0122072107F05B
:107290000DF804003F48404A4FF00101A0EB020006
:1072A0004FEAD00001EB00460AD0204605F056FE1A
:1072B000024630462B46394905F065FA214629E059
:1072C000284603F017FC4FF6FF71044688422BD185
:1072D0008A46069803F078FB0446504510D00146D4
:1072E000284603F0E7FB2846FFF766FDE0B928468D
:1072F00009F0CAF92846FFF75FFD0028BFD013E068
:1073000007F0A2F90446504508D1304624A105F003
:107310002FFA0421284609F0E5F9B0E7014628468E
:1073200003F0C8FB4FF00108B8B22246072107F06E
:1073300035F807001BD0862F1ED005F00FFE024641
:1073400030462B462349009405F025FA3946284655
:1073500009F0C8F90021484606F0A0FEB8F1000F78
:1073600002D0204603F0B0FB0AB0BDE8F08701214F
:10737000484606F093FEF7E7142217496846FFF7E0
:1073800075F8ADF80250684602F05CFAEFE70000CD
:1073900048250020083A0300C8390300B02E030036
:1073A000436F756C64206E6F7420616C6C6F6361E9
:1073B0007465206E657720706565725F696420660C
:1073C0006F7220696E636F6D696E6720626F6E64A5
:1073D0002E000000CC2F0300F81E030070B515002E
:1073E000044609D00020286034B1206820B1A0797B
:1073F000800703D0072070BD0E2070BD084600F046
:1074000097FBC0B2142804D02179814203D804200C
:1074100070BD052070BDE288216800FB0210286065
:10742000002070BD2DE9FC47002517880646158011
:1074300090F82D001446894630B13A462146484618
:1074400000F034FC051E09D1B0784FF00C0A18B3D7
:107450002088C846001DB84202D95046BDE8FC87C6
:10746000684679DF0028F9D12088032108F8001048
:1074700020881921401C80B2208008F80010208844
:10748000401C80B2208000EB0801BDF800000AF02B
:10749000A8F8218808442080F0780222C8B1218809
:1074A00096F9033001F1030C4846BC45D5D8425447
:1074B00021884FF0010C491C89B2218000F801C0DD
:1074C0002188491C89B2218009F801302088401C9C
:1074D00020807068B8B1218890F9003001F1030C68
:1074E0004846BC45B9D8425421880A22491C89B271
:1074F000218042542188491C89B2218009F8013039
:107500002088401C2080308950B1CDE900474B468F
:107510000622022106F108000AF052F9051E9DD14B
:10752000308A50B1CDE900474B460722032106F1CE
:1075300010000AF045F9051E90D1308B50B1CDE90D
:1075400000474B461522142106F118000AF038F9BD
:10755000051E83D1306A30B13B462246494601F0D0
:10756000CAFC051EDBD1706A30B13B462246494653
:1075700003F057FF051ED2D196F82C0038B13B46D8
:1075800022464946304609F0E9F9051EC7D1307850
:1075900038B13B4622464946304603F0CFFF051E30
:1075A000BDD128465AE718B504460020ADF80000C2
:1075B00013466A46204600F006F8002802D0BDF8BF
:1075C0000000204418BD70B5C8B1C2B100241588B0
:1075D00003E0065D641C3444A4B2A54203D8061936
:1075E00076789E4201D08C42F3D38C4207D2005D64
:1075F000A31C401E9BB280B21C188C4201D90020F3
:1076000070BD138070BD7FB516460D46040048D08E
:107610002078F0B355EA060043D000200090019096
:1076200002900390A5B1D4F82004016804F155003C
:10763000814200D1EE3000902046FFF70AFBADF802
:107640000400284601AA0099FFF7ECFE002824D187
:10765000A6B1D4F82004816804F23120814200D11F
:10766000EE3002902046FFF7F4FAADF80C003046F9
:1076700003AA0299FFF7D6FE00280ED19DE80F005D
:1076800004F5826585E80F002946002204F15400C4
:1076900000E004E0C4F8201472DF04B070BD0820DC
:1076A000FBE70E20F9E780F830107047FFF71CBCAD
:1076B0002DE9F0410D00044606D02CB195F87A0072
:1076C0000026012803D006E00E20BDE8F08195F8E1
:1076D0009800012829D0D5F8A000042825D0D5F895
:1076E0009C00042821D04FF00108A6702C2205F13F
:1076F0007801201DFEF7BAFE84F83060D5F8A400AA
:107700006063D5F8A800A0634FF6FF70A4F82404C6
:1077100004F58260C4F82004C4F82664A4F82A643E
:1077200084F82C64207810B104E00720CDE7FF2016
:1077300084F8540004F155072046C4F81074FFF78C
:1077400088FAA4F8140404F2144239462846FFF7D4
:1077500069FE0028B9D104F23120C4F8180420468B
:10776000FFF777FAA4F81C0404F21C4205F13C0070
:10777000D4F81814FFF756FE0028A6D184F85180DB
:10778000208BA4F8480084F83C80266484F850607C
:10779000606900216064454604F13C02781E72DF96
:1077A000002892D1257090E710B50288102A1BD0CE
:1077B000112A20D0262A1DD1007A0C46012801D09A
:1077C000022817D1A0780521401CB0FBF1F201FB83
:1077D0001201204600F04DF800280BD0A16B0029C3
:1077E00008D0BDE810400847C27B012A02D180883A
:1077F000A1F8240410BD0C46002184F82E148088C2
:10780000B4F824148842F5D120790028F2D101215E
:10781000DFE790F82D246AB1002280F82D240A6851
:10782000C0F826248A88A0F82A24897980F82C14A4
:10783000002070470820704710B5044690F85400A7
:1078400074DF012084F82E04002084F8300484F8CA
:1078500050000621204602F02EFA002808D1A17817
:10786000204600F006F810B1A16B01B18847002056
:1078700010BD2DE9F05F044600780F4698B1A7705F
:107880000025C4F82654A4F82A5484F82C54A0796E
:10789000012608B1012F09D0E07980B1012F05D070
:1078A000022F03D00BE00820BDE8F09F616B21B1EF
:1078B00084F82D640820884701E084F82D5404F2F0
:1078C000274100200A5C0AB1304603E0401C06282C
:1078D000F8D300204FF002084FF0030B012F06D021
:1078E000022F0CD0032F0FD0042F15D110E0A17957
:1078F00029B194F8241011B908B130460DE0E179AE
:1079000011B108B1404608E0207A08B1584604E0B9
:10791000607A08B1042000E02846A070616B41B194
:10792000032801D0042804D1607910B194F82E0402
:1079300098B184F82F5404F13C0018210746FEF753
:10794000AEFD84F83C6004F12C0007F011F858B14A
:1079500094F82C0084F8510008E084F8305484F83E
:107960002F6407208847E6E784F8516094F82400E4
:1079700058B104F1280006F0FBFF20B194F828006C
:1079800084F8520001E084F8526084F85050A278E4
:1079900004F2264104F582694FF0060A052A64D2F2
:1079A000DFE802F07C030F22420084F83160C4F863
:1079B0002054C4E9101584F83C808020A4F84800C5
:1079C00055E084F8318094F82420384612B107221B
:1079D000027001E080F800B0228A8281C4F820544D
:1079E0004160E168B96042E06069B860208BB881AD
:1079F00094F824003D460028204602D084F83CA09C
:107A000001E084F83C6009F0A7FE50B185F81480CD
:107A10000421204602F04FF938BB052184F83110CB
:107A200021E084F831B01EE0E069B860208CB881B4
:107A300094F824003D460028204602D084F83CA05B
:107A400001E084F83C6009F087FE48B185F81480B5
:107A50000421204602F02FF938B984F831A002E061
:107A6000042084F83100C4F82094A07878B13A4614
:107A700004F15400D4F8201472DF00287FF414AF0E
:107A800094F8301094F8540073DF0028F6D1616B3D
:107A900011B194F831008847002005E784F831508F
:107AA000F5E790F82F34009933B1002380F82F3494
:107AB0000A4303D0012102E008207047002180F82A
:107AC000301400207047000070B5040012D0014649
:107AD0001C221448FEF7CAFC1248134D05602068AA
:107AE00050B17ADF002806D120680168296040681B
:107AF000686005E00E2070BD0B487BDF0028FAD1DE
:107B000008484FF6FF711438084A20F8041B05494D
:107B1000343901600021FFF77FFA0028EBD0032001
:107B200070BD0000FC2C00209C240020F1160300F6
:107B300010B5044600F0B0F808B1204610BD14207E
:107B400010BD000010B5044600F0A6F8002805D0CE
:107B50002146BDE81040024803F006BE10BD0000FB
:107B6000282D002070B515460E46044609F000FE8B
:107B7000002809D0054800EB8400C0692A46314638
:107B8000BDE8704002F0C4B870BD0000182D0020A0
:107B900010B5044600F080F8002805D02146BDE865
:107BA0001040024803F0E0BD10BD0000302D002061
:107BB00010B5044600F070F8002805D02146BDE855
:107BC0001040024803F0D0BD10BD00002C2D002055
:107BD00070B50546002400F05FF838B12946044826
:107BE00003F0C2FD08B1022400E00124204670BD6C
:107BF000242D002070B50546002400F04DF838B162
:107C00002946044803F0B0FD08B1022400E0012435
:107C1000204670BD202D002010B51821034803F028
:107C20007EFD182800D0C0B210BD0000182D002025
:107C300070B505460C46084609F09AFD60B1284625
:107C400000F02AF840B10548294600EB8400BDE861
:107C500070401C3003F088BD002070BD182D00203E
:107C600070B5054616460C46084609F081FD002809
:107C70000ED0284600F010F8002809D005483246FA
:107C800000EB84002946BDE870401C3002F00EB8BD
:107C900070BD0000182D0020142801D3002070476B
:107CA0000146014803F060BD1C2D00207CB505464F
:107CB00008880C460930904201D90C207CBD6846EA
:107CC0006DDF0028FAD121880820685420881B2104
:107CD000401C80B2208029542088401C80B2208023
:107CE0002844DDF801100160BDF80510818020886E
:107CF000801D80B220809DF80010490800D001212D
:107D000029542088401C208000207CBD1FB50446DB
:107D100001208DF8060041F60A00ADF80400494A3A
:107D200001A90120A8DF00287DD122885AB1454849
:107D3000801C009094F83C3042F62920616800F0E5
:107D400075FF00287BD122895AB13E480A30009045
:107D500094F83C3042F62420E16800F067FF0028E8
:107D60006DD1228A5AB137481230009094F83C30D5
:107D700042F62520616900F059FF00285FD1228B6F
:107D80005AB130481A30009094F83C3042F627201F
:107D9000E16900F04BFF002851D1228C5AB12948EB
:107DA0002230009094F83C3042F62620616A00F0C0
:107DB0003DFF002843D1228D5AB122482A3000903D
:107DC00094F83C3042F62820E16A00F02FFF0028AA
:107DD00035D1216B79B102A809F09EF91948082222
:107DE0003230009094F83C3002A942F6232000F093
:107DF0001DFF002823D1606B60B112493A31009118
:107E00000279016894F83C3042F62A2000F00EFF17
:107E1000002814D1A16B89B102A807F031FD0948EF
:107E20004230009000E00AE094F83C30072202A9BA
:107E300042F6502000F0FAFE002800D1002004B0E5
:107E400010BD00006625002038B5044600882128B2
:107E500022D008DC174D10280DD0112802D14FF682
:107E6000FF70288038BD3B2820D05628FAD1A08842
:107E7000132176DF0AE0072000F0A8FC08B1FFF725
:107E800033F8A18829800C4803F0BEFD0028E9D012
:107E9000BDE83840FFF728B800200090A088694668
:107EA0008FDF0028DED0FFF71FF838BDA088132130
:107EB00076DFEBE75C220020CC27002010B51A4CBF
:107EC0000188606810290ED011292BD1401E6060F6
:107ED00028D1FEF7C6FE002824D02168002921D031
:107EE000BDE810400847D0B900210122084600F043
:107EF00053FC08B107280FD107220221012000F00E
:107F00004BFC08B1072807D104220221002000F011
:107F100043FC20B1072802D0216801B1884760687E
:107F2000401C606010BD0000942400202DE9F04743
:107F300001883B4E40F2F3194FF6FF7510291BD014
:107F400011293ED0122954D0502946D1C188F28936
:107F5000841D914241D1618902293ED186883046F3
:107F600002F002FF050038D004F10C0000F0B0FA76
:107F7000A8B3294630464EE0C17B878804460129D4
:107F80002BD1A846284602F0EFFE050017D02F801F
:107F900000202872234843464A460168C5F80A1063
:107FA0004068C5F80E0004F1100105F10A0002F066
:107FB0009DFF6872F08900280FD129462AE004202D
:107FC00013E0808802F0D0FE040006D06068FFF75E
:107FD00075F808B108F06AFB2580BDE8F087FFE777
:107FE0006868FFF76BF80028F7D0BDE8F04708F0A5
:107FF0005DBB87880646384602F0B6FE0400ECD02A
:108000002B464A4606F1080104F10A0002F06EFF11
:10801000607221463846BDE8F04700F0B3BF00006B
:10802000FC2C00209C2400202DE9F04F044686887B
:108030000188424897B0834610290CD0112950D0AE
:10804000103019296AD01A2974D1217A0C09042C0C
:108050004DD301224CE0394D083DA868C0430B9038
:1080600069680BA803F0A4FB0B990CA800F024FF8F
:108070002C220CA96846FEF7F9F90027E946A84624
:1080800010E000BF09EB47005FF00005B0F804A066
:1080900008EB85005146001D03F026FB6D1C1E2DCC
:1080A000F6D37F1C0098B842ECD8142E05D317B035
:1080B0000420BDE8F04FFEF717BF3146584603F0E5
:1080C0005EFB314608F1040003F059FBE07B012818
:1080D00030D017B03146BDE8F04F1848001D03F00E
:1080E0004EBB17B03146BDE8F04F03F0FDBA002299
:1080F000314601F0DBFD032C01D3012200E0002218
:108100000E4831460C3001F0D1FD022C01D3012282
:1081100000E0002209483146083006E0217A0029B3
:1081200008D1617AC1F3C002314617B0BDE8F04F03
:1081300001F0BCBD17B0BDE8F08F0000202D00207D
:1081400010B504460748007800280AD0204602F0FF
:1081500037FB204608F0AEFC2046BDE8104001F099
:1081600023BF10BDD82400202DE9F04391B00C4668
:1081700005000DD064B1A07A0A2805D8207C0A2811
:1081800002D8207E0A2805D9072011B0BDE8F08367
:108190000E20FAE72068286060686860A07AA874FA
:1081A000207C85F87800207E85F8DE0001268DF899
:1081B000226041F61200ADF8200005F1080208A97E
:1081C0003046A8DF0028E0D1002709E0A06B01AA13
:1081D00030F817102889A9DF0028D6D17F1CFFB2FC
:1081E00094F83600B842F1D8207A4FF0000808B968
:1081F000607A38B394F83C9094F83D708DF8306014
:1082000020216846FEF74BF942F64E20ADF80000FB
:108210000CA802909DF80D00ADF8046040F0060037
:108220008DF80D008DF81190ADF806608DF8127084
:108230008DF80F60288905F10A02694600F026FDD5
:108240000028A2D12146284602F058FD00289CD1E2
:10825000207C18B3606908B300271CE06069CDF882
:10826000108000EBC7039DF8100007EB870140F07A
:108270000E008DF8100005EB4100191D7A30CDE994
:10828000001033F8022B04A9284607F01FFE00282F
:1082900099D17F1CFFB2207CB842DFD8207E18B372
:1082A000E06908B300271CE0E069CDF80C8000EB22
:1082B000C7039DF80C0007EB870140F00A008DF81A
:1082C0000C0005EB4100191DE030CDE9001033F83A
:1082D000022B03A9284607F0F9FD0028B1D17F1C25
:1082E000FFB2207EB842DFD82146284607F03BFE89
:1082F0000028A6D1207A70B305F5A770009004F18C
:108300004203082242F62221284600F0EBF800281A
:1083100097D120216846FEF7C2F842F63220ADF828
:1083200000009DF80D00ADF8046040F00E008DF8DF
:108330000D0094F845008DF8110094F846008DF872
:1083400012008DF80F60288905F5AB72694600F0C0
:108350009DFC00289CD1607A60B105F5AF7000905B
:1083600004F13F03082242F63321284600F0BAF810
:1083700000288DD12146284602F031F9002887D106
:1083800094F83E708DF80880202109A8FEF787F840
:1083900042F64C20ADF824009DF83100ADF828607D
:1083A00040F004008DF8310002A88DF83670ADF869
:1083B0002A600B90288905F5B77209A900F066FCC0
:1083C00000288BD1E168C5F87C116169C5F880117E
:1083D000E169C5F88411D8E62DE9F04786B09846E2
:1083E000DDF838A016460F4604001ED0B8F1000F85
:1083F0001BD0A07CB8424FD907EB870004EB4000AC
:10840000AAF57F4100F11409FF3943D0ADF814609B
:10841000002504AA5146D4F87801FEF7DFFF0028B2
:1084200004D10498133004900BE00E2006B0BDE890
:10843000F08700BF30F8350004996D1C0844EDB298
:108440000490D4F87C01BD42F4D330F83700B04238
:108450001ED3324641460498FEF708F800200090EB
:10846000019002900390B9F80010ADF8040005A83F
:10847000ADF80010CDE9020801218DF8021069461F
:108480005046AEDF0028D1D102990988B142CDD043
:108490000C20CBE70820C9E70720C7E70A460146BA
:1084A00010460A88102A05D0502A05D0512A05D135
:1084B00005F06BBB05F09EB905F0CEBB704770B5FB
:1084C00004460D460846FDF7F5FF2080656070BD47
:1084D000007800F0010070470A7802704978417016
:1084E000022070472DE9F04188B00F4605461C4632
:1084F000164620216846DDF83880FDF7D0FF9DF84C
:108500000D00ADF8007040F00201ADF804608DF888
:108510000D10607810B141F0080101E021F0080170
:1085200041F010008DF80D0020788DF81100607872
:108530008DF81200A0788DF8130001208DF80F003F
:1085400028894246694600F0A1FB08B0BDE8F081E9
:108550000149085C70470000A91D03000649095C39
:108560004FF0A040D0F81005C84010F0010000D036
:10857000012080F001007047A91D03007CB505466D
:10858000C0074FF000040AD00B48012200230078F6
:1085900000941146019403F06FFE00F041F8A80723
:1085A00009D505480022401C032300780094114699
:1085B000019403F061FE7CBDA81D030007490B5C1C
:1085C0004FF0A041D1F804250120984020EA020391
:1085D000C1F808351040C1F80C057047A81D03000C
:1085E0000249085C012103F0D8BE0000A81D030069
:1085F0000249085C002103F0D0BE0000A81D030062
:108600000649095C4FF0A040D0F80405C84010F0BE
:10861000010000D0012080F001007047A81D030078
:108620000020FFF7DDBF0020FFF7E2BF044B02464A
:1086300000211B784FF0FF30934200D1084670476D
:10864000A91D030070B50C4E0C004FF00005306002
:108650000BD0002000F05AF808B1022004E00020FE
:1086600000F054F800B10B202070706810B9FEF7CC
:10867000F8FA0546284670BD9424002010B5002065
:1086800000F0E0F908B1062806D1002000F0DAF980
:1086900008B1062800D1002010BD00002DE9F041EE
:1086A0000D468046FFF7C2FF002829D1164F154816
:1086B0007C1C661FEDB1012D0BD0022D20D16578F9
:1086C000002D1DD0F16800291AD02846BDE8F041E0
:1086D00008472578617849B10B4A4FF48041521E12
:1086E0008068FEF7D3FC08B986F80380A07838705C
:1086F000E6E78068FEF7E2FC3878A578A842DFD08C
:10870000BDE8F081AC1D03008824002008B10020E2
:108710007047FFF723BF00001CB502461C48042A1F
:10872000008824D04FF6FF71072A29D00A2A1AD0D0
:108730000E2A17D1884215D020208DF80400144845
:1087400001AB0122022108300094FFF745FE002012
:108750008DF804000E4801AB01220221083000947C
:10876000FFF73AFE1CBDBDE81C4008F08FB913218D
:1087700076DF0AE00028F5D0BDE81C40FEF7B4BB68
:108780008842EFD10348FFF757F80828F2D11CBD03
:108790005C220020D827002003004FF000000AD1FF
:1087A000094B012A02D1012907D0002251B1012928
:1087B00004D0022904D0072070470E221A70704797
:1087C0005A7070479A70704789240020044A014605
:1087D0000020127AD20702D0084600F04DB8704748
:1087E0008424002070B506461E480024C0E90261BA
:1087F000B0071FD5002506E0012211462846FFF7E5
:10880000CBFF04466D1C55EA0400F5D094B940F244
:10881000333201211448FEF7E7FA04000AD1FEF7CB
:10882000D1FA040006D11048104A0021001FFEF7BB
:10883000F3FB0446F00712D00120FFF79FFE74B946
:1088400009480B4A00210C38FEF7E6FB040006D16C
:108850000548084A01210838FEF7DEFB0446204699
:1088600070BD000084240020B81D0300498B020065
:1088700065AF0200B36D02002DE9F05F6F4C054655
:1088800000266078B34618B184F801B002F060FBAE
:108890006B4F4FF47A694FF4C87A4FF00108182DE6
:1088A00069D2DFE805F00C1313384754696E737C06
:1088B000737CC78585858585B4B7BBBEC7C702F005
:1088C00047FB3868FEF7FAFB06465DE00020FFF73D
:1088D00097FE00284FF0000008D0FFF781FE022D20
:1088E00002D14FF4E16008E0484606E0FFF780FE61
:1088F000022D01D1C82000E05046410CC0034FF4C6
:108900007A72801841F10001257052000023FDF7B2
:1089100069FD01462AE00020FFF772FE00284FF0B3
:10892000000004D0FFF75CFE4FF44870E5E7FFF766
:108930005FFEDFE70020FFF763FE00284FF0000036
:1089400002D0FFF74DFECFE7FFF752FED4E700203D
:10895000FFF756FE00284FF0000002D0FFF740FE60
:1089600001E0FFF745FE257040F6CD410022386852
:10897000FEF78CFB064647E00020FFF71FFE257040
:1089800009E00020FFF72CFE25703DE084F801800F
:108990000120FFF713FE002240F26661E7E784F84A
:1089A00001800120FFF70AFE00224FF40051DEE7AC
:1089B0007868FEF783FB0646D5F1110000D02EB192
:1089C0000220FFF70DFE84F802B01DE0012816D941
:1089D00080B2C8214843C117C90341EA5041C003CE
:1089E0004FF47A72801841F1000152000023FDF724
:1089F000F9FC014600227868FEF748FB0646022093
:108A0000FFF7F6FD84F802803046BDE8F09F02F0E3
:108A10009FFAB9E702F09CFA002008E002F098FA09
:108A200004E002F095FA0020FFF7E2FD0120FFF7D5
:108A3000DFFDA9E7FFF7F7FDA6E70000842400208B
:108A4000AC1D0300012108F022BF00002DE9F8430E
:108A50000546861C00208DF8000090460F464FF01A
:108A600001096846FEF730FB1B4C20683860D4E9EA
:108A70000001401AA16804F21C47081A0EE0012107
:108A8000384602F08FFE02F0FFFB0146384602F046
:108A900089FED4E90001401AA168081A401C8642E8
:108AA000EDD8B8F1000F03D0052065F3891002E07E
:108AB000062065F39F50A2682168114004EB8101F4
:108AC000C8602068304420609DF80000FEF720FB5D
:108AD0004846BDE8F88300008834002070B50D4694
:108AE00004460A2902D10D21FFF7F8FFA068226889
:108AF000411CA1601554D4E90101814204D32046F0
:108B0000BDE8704003F07DB870BD0000034803C8A5
:108B1000814201D101207047002070478834002035
:108B2000034630B5074800210478426806E000BFDC
:108B300002EBC10005789D4203D0491CA142F7DB3E
:108B4000002030BDD025002000780221FFF7A6BD0F
:108B50001CB5044601F0CEFF00236A46092105F04A
:108B6000E7FC052805D10348012241792046FFF79B
:108B700077F81CBDA42400201CB5044600200090FA
:108B800042F6A620ADF8000001208DF8020008484A
:108B900001AA6946006801902046A0DF002805D19F
:108BA0000448012281792046FFF75AF81CBD0000D5
:108BB000C01D0300A424002005494FF0FF320828FF
:108BC00041F8202002D3084480F848207047000074
:108BD0008C300020F0B54FF0FF3512B1002308268D
:108BE00001E008230C260C4C05E000BF54F823706C
:108BF0007F1C04D05B1CB342F8D32846F0BD261876
:108C00005DB286F8305044F82310002AF5D1E118FF
:108C100081F84800F1E700008C3000200249084448
:108C200090F93000704700008C3000202DE9F041B1
:108C300088B01E46DDF8388014460D00074602D184
:108C40000020FEF751F914B90020FEF74DF920215C
:108C50006846FDF724FC9DF80D00ADF8044040F097
:108C600002008DF80D000848ADF80070ADF8064020
:108C700002958DF8116042466946008800F006F8BA
:108C800008B0BDE8F0810000662500202DE9F04322
:108C90008146887891B090460C4600B901208DF845
:108CA0003E002088ADF83C0000250095607C6946B8
:108CB00007F0D4FE6E46A07C711C07F0CFFEE07B6F
:108CC00000289DF8020002D040F0080001E020F0EA
:108CD00008008DF80200217C11B140F0100001E085
:108CE00020F010008DF80200217B11B140F001004E
:108CF00001E020F001008DF80200217D09B1022180
:108D000000E0012161F342008DF802001C2102A85D
:108D1000FDF7C5FB607BC10601D4800617D50E9513
:108D20000EAFE07C791C07F099FE9DF8380007979C
:108D300020F00F00401C20F0F00010308DF83800BB
:108D40009DF83A0020F00600801C8DF83A00607B08
:108D50008DF80800A07B8DF80900142109A8FDF703
:108D60009EFB0FA8CDE90906A088ADF83000A068E9
:108D700020B1E088ADF82C00A0680D90A06998B3F0
:108D800001950088ADF81000A06901AD01A94088E7
:108D9000ADF81200A069406806950390A069007BB9
:108DA00007F05CFEA069691C407B07F057FEA069D4
:108DB000807A00289DF8060002D040F0080001E00B
:108DC00020F008008DF80600A169C97A11B140F0C1
:108DD000100001E020F010008DF80600A169097A6A
:108DE00019B140F0010002E00DE020F001008DF823
:108DF0000600A169897B09B1022100E0012161F32C
:108E000042008DF80600E06900B10590434609AACA
:108E100002A94846AADF11B0BDE8F08370B5044648
:108E20004FF6FF750A462846AC4209D14FF48074CC
:108E30002146104602F073FC80B2A0420BD070BDF8
:108E4000FF2CFCD82146104602F059FC90F0010F8F
:108E500001D0204670BD284670BD000070B5084C9A
:108E6000050009D010342168002907D00868206067
:108E7000496828468847F6E70834F4E770BD0000E3
:108E800078300020054A012120B1012805D19170D8
:108E9000FFF7E4BF51700020FAE7704778300020F8
:108EA00010B5D0E90234D1E90220D11AA04101D392
:108EB000012010BD002010BD73B58CB00646002007
:108EC00000900D9880B100246D4621460DA802F057
:108ED0004BFC30B1009805EB400084800098401CAA
:108EE0000090641C142CF0D32C2269463046FDF708
:108EF000BDFA0EB070BD2DE9F04117880646B81DC9
:108F000014460D46984202D90C20BDE8F081318804
:108F1000072206290AD34FF4486C4FF6FF736145C8
:108F200001D9994202D17088062801D21046ECE797
:108F3000604501D99842F9D1994203D0984201D0B5
:108F40008142F3D80520E85520881221401C80B2C8
:108F5000208029542088401C80B22080411930880C
:108F600008F03FFB2188084480B2208041197088B6
:108F700008F037FB2188084420800020C5E7FDF772
:108F8000B3BF000038B54A7A0F4B62B100220A72B3
:108F90005969002906D001228DF80020ADF80200A1
:108FA0006846884738BD0A7A62B19B684C680246B9
:108FB00019462046FEF76AF80028F3D0BDE838408D
:108FC00007F074BB5B68F1E7FC2C0020F0B585B0BE
:108FD00016460F4604461D4614220B496846FDF707
:108FE00045FA0A488DF80870ADF80240ADF80A60FD
:108FF0008DF80C50017800222046FEF731FE6846BD
:1090000000F020FC05B0F0BD0C1F03004825002037
:10901000FDF75CBD70B588B006460020059006904F
:10902000ADF81410ADF816100190029001AA05A930
:10903000304690DF050021D003F090FF0346114831
:1090400011493246401AC108012000EB0140044694
:109050000E4903F098FBBDF8042012B9BDF80600D4
:1090600028B1BDF80630204609A103F08CFBBDF8FD
:1090700008201AB12046164903F07EFB08B02846A6
:1090800070BD0000E0390300C83903002827030041
:1090900054686520726571756573746564205458F1
:1090A0002F5258207061636B6574206C656E677415
:1090B0006820697320746F6F206C6F6E672062790F
:1090C0002025752F2575206F63746574732E00003D
:1090D0007427030070B504460948012102F07DFBA6
:1090E000BFF35F8F0025002808D1204602F046F824
:1090F000002803D1BFF35F8F0148056070BD0000F9
:10910000B02400202DE9FF410C4620B14FF4064069
:1091100004B0BDE8F0812079002748F2096538B134
:1091200041F61D5601281BD0022826D0681DEFE706
:109130000220207102970397E0680190694601A818
:1091400006F0DCFD50B102988188E1800088208122
:10915000BDF80010029806F04FFED9E72846D7E781
:109160000A4B6A460021A01D06F080FD38B1074970
:1091700018398F61CF61A842CAD13046C8E7034889
:109180008188019806F038FEF5E7000040260020AF
:10919000F0B587B00C4607461646142101A8FDF726
:1091A0007EF9A07800B901208DF81A002088ADF86A
:1091B000180006A80190A079694607F04FFC6D469B
:1091C000E079691C07F04AFCE07800289DF802006D
:1091D00002D040F0080001E020F008008DF8020005
:1091E000217911B140F0100001E020F010008DF85D
:1091F0000200617911B140F0010001E020F00100AE
:109200008DF80200217A09B1022100E0012161F309
:1092100042008DF8020002956089ADF80C00A0892B
:10922000ADF80E00E089ADF81000206905903246D7
:1092300001A93846ABDF07B0F0BD000070B50024CF
:109240000F4D10E0686800EBC406307803F0A2FF11
:109250007178012901D0012100E0002141403078DE
:1092600000F044FA641C28788442EBDBD5E9040161
:10927000084303D0BDE8704008F000B870BD00009E
:10928000D025002010B50021024802F0A6FA80F394
:10929000100010BDA43800204FF480328A400168CD
:1092A000C1F848230068C0F8082370474FF4A07243
:1092B00002EB810189B200F089BA2DE9F04105463F
:1092C0000E464FF4A07000EB860081B228684FF480
:1092D0008034B440984622F07F47C0F8084328689D
:1092E000C0F84843286803F0CDFB286800EB8600EF
:1092F000C0F840752868C0F84443B8F1000F02D0A8
:109300002868C0F80443BDE8F0810068D0F804057F
:109310007047000070B54379224C44F8232042790D
:10932000241D04EBC202204B1579204A9A1AD30857
:109330002DB10824022000EB03401DA12EE002689D
:109340000D88C2F8085590F904208978002A4FEA60
:10935000411106DA02F00F0202F1E02282F8141D38
:1093600003E002F1E02282F8001490F904100122D7
:1093700001F01F0502FA05F54909890001F1E02114
:10938000C1F80051417904EBC1010A71417944F8F7
:1093900031000320002400EB03400EA103F0E8F9A4
:1093A000204670BD1C260020583A0300C83903002F
:1093B00052544320696E7374616E636520616C72F0
:1093C0006561647920696E697469616C697A656444
:1093D0002E0000005254433A20696E697469616C32
:1093E000697A65642E00000090F90400012100F004
:1093F0001F0291404009800000F1E020C0F80012F7
:1094000070470A46022100F067B94FF4827100F0FC
:10941000DDB90068012101607047006801214160E9
:1094200070472DE9F05F07460C464FF4A07000EB43
:1094300084001FFA80FA38684FF48036A6409B46B5
:1094400022F07F45C0F848633868C0F80863386880
:10945000D0F8048500EB8402D2F84095C2F840852C
:109460005146386803F00EFBA9EB080020F07F405E
:10947000012806D1102003F0CBFD5146386803F0D7
:1094800001FB3868D0F80485C0F84463A5EB0801F7
:1094900021F07F413868012900EB840010D0C0F82A
:1094A00040553868D0F804156FF07F4C6A1A521E88
:1094B00022F07F42ACEB0B03934217D362B118E06A
:1094C0006D1CC0F84055102003F0A2FD3868D0F89C
:1094D000040540450AD10CE000EB84006D1CC0F887
:1094E00040553868D0F80405884202D00D20BDE808
:1094F000F09F01223146384600F0EEF80020F6E7F2
:1095000013460A460021FFF761BD00002DE9F8432C
:10951000104D0F4680461E4691466946286802F067
:10952000B7F8040014D01C21FCF7B9FF012020710A
:10953000C4F81490380BC4F80080C4E9026069468E
:10954000286802F0C6F806F0FBFA0020BDE8F883B0
:109550000420FBE71020030010B503780022072B3E
:1095600006D2DFE803F005040610202930000A7057
:1095700010BD01230B7003898B818388CB81C06868
:1095800088600A7410BD02220A7002898A8182886A
:10959000CA81C2688A60807D062802D000200874D3
:1095A00010BD0120FBE703220A70C2888A8102896C
:1095B000CA81C068886010BD04230B70C088888190
:1095C000CA818A6010BD0520087010BD70B5064DB7
:1095D0000646002455F8241009B130468847641C1B
:1095E000042CF7D370BD0000F831002030B50446DC
:1095F000006887B00D46806800281FD01821684693
:10960000FCF74DFF0195A0680590207910B1012865
:1096100010D107E001208DF8000020690290E06879
:10962000039005E002208DF80000E068000302903E
:1096300060690490206881686846884707B030BD3B
:10964000F0B585B017460C0005463AD0112C38D03D
:10965000082C36D01C481D49401AC6080D2C11D0C4
:10966000204603F07BFC0246012000EB06402B461F
:10967000174903F088F82A460721684601F0BCFF25
:1096800002941BE0022000EB06402A46114903F039
:1096900073F82A460321684601F0AEFF27B13878F7
:1096A000C00701D0012000E002208DF80800002052
:1096B0008DF80C0041F20110ADF80A00684600F088
:1096C000CFF805B0F0BD0000103A0300C839030020
:1096D00098310300883003000368C3F84413002A5C
:1096E00002D00068C0F80413704700002DE9F84F5D
:1096F0000E463449804601EB5001C007097801D07D
:109700000F0901E001F00F074FF000094246012068
:109710004946FCF798FEDFF8B0A004460D46052F39
:109720004ED2DFE807F003161B282C00002E47D08E
:109730000121404607F05CFC8DF800906846FDF77B
:10974000C3FC5046D0E904120C431543CAE9044552
:1097500032E00EB1022114E0002112E04EB10321EB
:10976000404607F045FC4046BDE8F84F012108F0AF
:1097700017B8012105E0002E22D1042101E02EB10D
:1097800003214046BDE8F84F07F032BC00214046B7
:1097900007F02EFC0021404608F002F88DF80090FA
:1097A0006846FDF791FC5046E243D0E904341A4084
:1097B00024EA0501CAE904219DF80000FDF7A8FC90
:1097C000BDE8F88F58310020D025002010B5006882
:1097D00042581AB103F056F9012010BD002010BD07
:1097E00010B50446408801F085F9A0800248016860
:1097F0002046BDE810400847AC24002010B50446C0
:10980000808801F04BF86080024801682046BDE87E
:1098100010400847BC2400202DE9F04107460024F1
:10982000064E074D05E000BF56F82410384688471D
:10983000641CE8788442F7DBBDE8F0812C3000201E
:10984000D824002010B50446408801F053F9A080C8
:10985000024801682046BDE810400847CC1E0300BE
:109860000149096808470000481F030070B586B029
:10987000044614216846FCF712FEA0890125A0F5D4
:109880004040ADF8040020782F4E062833D2DFE8A0
:1098900000F0320303032C4AA08900F0EBF930B941
:1098A000E08943F6FE71A0F54040884223D8A07BB2
:1098B0008DF80800207803280FD000208DF80900CB
:1098C000A0680390606850B109208DF800006068BE
:1098D0000490684604F07EFD0DE00120EEE70820CC
:1098E0008DF800008DF81050F3E7A08900F0C2F960
:1098F00008B1E08930B17078002801D004F0B8FEDA
:1099000006B070BD606830B10B208DF80000606853
:1099100002907570DDE70A208DF80000BDF80400A4
:1099200004F04AFFF5E7606848B114208DF80000A4
:10993000606802904FF6FF70ADF80400C9E713208D
:109940008DF80000F6E70000C424002038B5044676
:109950000F480078B0B1A4F57F40FF380FD06846BB
:1099600006F01EF888B10521017001210171C48043
:10997000684606F023F806F0D5F8002038BD48F216
:10998000036038BD48F2016038BD48F2076038BD59
:10999000482600200D4808B5007888B1684605F0D3
:1099A000FFFF80B106210170684606F007F80848FD
:1099B000017809B10121017306F0B4F8002008BD57
:1099C00048F2016008BD48F2076008BD4826002043
:1099D000BC320020F0B587B014216846FCF75FFD6B
:1099E000304C207818B16846FFF7F0FD57E0201D95
:1099F00001F0D5FE98BB40F6F8700168481C02D112
:109A00004FF0102041694FF08050026940694B1CB3
:109A100001D100FB02F1244800220161A1F540516F
:109A2000C160224902F082FA002823D121481C2378
:109A30008C221F49006801F018FE04F057FA050057
:109A400016D0022D14D000270126062D14D005A80B
:109A500005F0A6FF98B106700C2D1BD200E01EE0A9
:109A6000DFE805F01810181018171817181214123C
:109A700048F20A6007B0F0BD26706760B3E748F2AD
:109A80000760F7E7077105E0032100E0022101719B
:109A900000E0067105A805F091FF06F043F80020EC
:109AA000E8E7000048260020DC26002020200300F4
:109AB00008320020881F030038B5040014D069461E
:109AC00006F01CF9B0B1BDF8000000EB80010B48B6
:109AD00000EB8100C16851B1A17A41B1C168491E52
:109AE000C1600020A07238BD48F2046038BD48F261
:109AF000056038BD48F2096038BD0000943200208E
:109B00001FB501A9684606F0B1F804B010BD07B54D
:109B100013460A466946002006F0A8F80EBD07B5B0
:109B200013460A460021684606F0A0F80EBD20B193
:109B300019B1006808600020704748F2046070475F
:109B4000F8B50D46040018D0BDB1694606F0D6F848
:109B5000B0B1BDF800000C4900EB800001EB8000C3
:109B600001210C30666801F01DFE2E6060680C302B
:109B700068600120A0720020F8BD48F20460F8BDC2
:109B800048F20960F8BD00009432002018B10323A8
:109B9000002207F0D7BF48F204607047022300227A
:109BA00007F0D0BF094910B50A69042A0AD0084A4B
:109BB000096942F8210005480121103001F0F2FD49
:109BC000002010BD48F20B6010BD000028260020C8
:109BD000F83100202DE9F84F044624480078D8B128
:109BE000F4B112212046FCF75AFC0320DFF88090E4
:109BF0002080002504F1100804F10E0A05EB850110
:109C000009EB810630897189084487B2706804F0D5
:109C1000F7F8032807D009E048F20160BDE8F88FA3
:109C200048F20460FAE72088401E20806088F168CE
:109C30000844608020897189084420816089384403
:109C40006081C7F58060A18980B2814200D2A08185
:109C50005346A21D211D2846CDF8008006F0EAF8E3
:109C60006D1CADB2022DC9D30020D7E748260020D5
:109C70009432002043F6FE71A0F54040884201D89E
:109C8000012070470020704710B50446007818285E
:109C900002D1FDF7C1FF207010BD10B50446007859
:109CA000182802D1FDF7B8FF207010BD0AB101F0ED
:109CB00066BD01F019BD70B50D460446B0F8141428
:109CC000D0F810040122FDF76EFC00B1057004F11C
:109CD0003C0204F5826104F1540072DF70BD0000A3
:109CE00070B5134600220546112900D10122074C08
:109CF00033B12179FDF7B4FF00226178284600E0F6
:109D00006178BDE87040FDF7ABBF00005025002032
:109D1000F7B517460E0011D00098002560B1002459
:109D20002146684601F020FD18B1A0B23946B0477F
:109D30006D1C641C142CF3D32846FEBD0020FEBD10
:109D4000406805F04DBE00000EB517A19DF8080053
:109D500020F00F00401C20F0F00010308DF80800BB
:109D6000112202A87CDF08B1FDF7BEF840F2C23034
:109D700078DF08B1FDF7B8F80020009001900620C8
:109D8000ADF800000C20ADF802001420ADF804007E
:109D90004FF49670ADF8060068467ADF002801D0CF
:109DA000FDF7A2F80EBD0000426C7565746F6F740C
:109DB00068205368757474657200000070B510B146
:109DC0004FF4064070BD1C4C0025207B08B1257364
:109DD00001E000F0A5F8207808282AD2DFE800F09A
:109DE0002904080C10291422BDE8704000F026B8A0
:109DF000BDE8704000F082B8BDE8704000F064B883
:109E0000BDE8704000F040B80620207060880A4924
:109E100000EB8000283901EB80004068BDE870400D
:109E200004F044B8072020706560BDE8704004F07D
:109E30004BB848F20E6070BDBC3200201149F0B43E
:109E40008A1C00200346A1F128050C18A67A4EB101
:109E5000A37200EB800405EB8404E66816B9247C49
:109E6000012C0AD0401C80B20228EED30B704B802C
:109E70004B60F0BC41F61D5070471080F0BC00F004
:109E80003DB80000BC3200200C48418801EB810243
:109E9000A0F1280101EB8201CA6852B105210170CD
:109EA000074802218180016800230122054801F052
:109EB000A1BF042202704968F6E70000BC3200200E
:109EC00050260020DC26002038B50A490848032423
:109ED0000B684268898803EB810153880470DB1C9E
:109EE00000201B0400909B0B034802F0D7F838BDFC
:109EF000BC32002050260020DC260020074910B587
:109F00004888091D05F04AFF18B1BDE81040FFF769
:109F1000DBBFBDE81040FFF7B7BF0000BC32002038
:109F2000F0B51F481F490125067802248B88A0F14F
:109F30002802082E19D2DFE806F00418181B222F79
:109F40002F170189491C01810021418080F80C10E4
:109F500001EB810312F8233043B100234418491C5C
:109F600089B2A3720229F3D30570F0BD0123F5E78E
:109F700042685288D21C1A448A800470F0BD468818
:109F80000D6806EB860602EB860256680E60556089
:109F900013818C80062100E007210170F0BD0000D4
:109FA000BC320020502600202DE9F0430646808870
:109FB0003288DFF85C8185B00746502A37D010DC44
:109FC0005449554B06F10A05A1EB03014FEAD101B3
:109FD0004FF0020303EB0144352A3AD0362A07D169
:109FE00068E0522A02D0542AF9D102E001F06AF85E
:109FF00082E0142249496846FCF738FAADF802704D
:10A00000384600F077FDADF8040000F0C9F90022F1
:10A01000444698F804103846FDF722FE0022E17805
:10A020003846FDF71DFE6846FFF7DAFB64E0307B3B
:10A03000012861D1B07A01285ED13089A0F5245180
:10A04000023959D10121384601F090F807F038FB68
:10A0500052E098F80610FDF7EBFD00284CD00022E6
:10A0600098F806103846FDF7FBFDF288B2F5857FBB
:10A0700017D012B120462AA10BE02A88012A03D06A
:10A08000204636A102F078FB6A88012A04D02046D7
:10A0900041A102F071FB04E0A98800223846A1DF4B
:10A0A00008B1002125E0012298F807103846FDF795
:10A0B000D7FD21E04FF0000998F80710FDF7B8FD33
:10A0C000D0B1002298F807103846FDF7C9FDF28894
:10A0D00012B1204612A104E0AA88012A04D0204629
:10A0E0002DA102F049FB03E0A87900B101208146CF
:10A0F0004946384606F0DAFF0022364998F8020051
:10A10000FDF730FD05B0BDE8F04306F01FBB0000D1
:10A11000A4240020C8390300C8390300181E030016
:10A12000556E6578706563746564204741545420AA
:10A13000737461747573207768696C6520676574E2
:10A1400074696E67204341522063686172207661B2
:10A150006C75653A20307825780000004D756C7478
:10A1600069706C652028256429204341522063686A
:10A170006172616374657269737469637320666F79
:10A18000756E642C207573696E672074686520662F
:10A19000697273742E000000556E65787065637483
:10A1A0006564204341522063686172616374657223
:10A1B00069737469632076616C7565206C656E6780
:10A1C000746820282564292C2073746F72652030F0
:10A1D0002E0000005572020070B504460078002879
:10A1E00014D1608800F06EFF6588284600F09AF967
:10A1F00028B107480122C1782846FDF731FD608863
:10A20000FEF7A6FCBDE8704007F05ABA70BD00002A
:10A21000A424002070B5204C00252570FDF7FCFC1F
:10A220006070FDF7F9FCA070FDF7F6FCE070FDF73B
:10A23000F3FC2071FDF7F0FC6071FDF7EDFCA071FF
:10A24000FDF7EAFCE07162780121182A18D0A278A3
:10A25000182A15D0E278182A12D02279182A0FD09D
:10A260006279182A0CD0A279182A09D0182807D0A8
:10A2700004F10C000560BFF35F8F2170002070BDFA
:10A280000648074A801AC00801EB0040054902F061
:10A290006FFA032070BD0000A4240020C839030019
:10A2A000C8390300F82203007CB50446007808286A
:10A2B00037D1607A58BB207A1C4E4FF6FF750128C3
:10A2C00011D0072802D008282BD121E0A08800F067
:10A2D000E5FA0446A84224D0012100F047FF2046B9
:10A2E000FEF736FC1DE0A0886A46012103F094FFCA
:10A2F00068B90198007850B1A08800F0CFFAA84260
:10A300000FD00122F178FDF7ABFC06F01FFA08E050
:10A31000F068012805D1BFF35F8F044900200C319C
:10A320000860BDE87C4007F0CBB90000A424002001
:10A3300010B50B48FEF7E9FF094A083AD2E90434A0
:10A34000C018D2E9063244F10001C31A71EB0202CF
:10A3500004D24FF08072801841F1000110BD00005E
:10A360000026002010B5C0B2FEF7DAFB04460078E4
:10A3700002F010FF01466078012801D0012000E0C2
:10A38000002090EA010F08D00449D1E904010843F4
:10A3900003D1BDE8104006F071BF10BDD0250020EC
:10A3A0001CB5054AD2E90212CDE900120022694625
:10A3B00004F0F8F81CBD0000301E030003484FF6FF
:10A3C000FF7181800121017000207047B4240020BA
:10A3D0002DE9FC41804600F08DFB00240325012778
:10A3E000A0F57F412646FF3908D06A46082103F0D0
:10A3F00013FF18B90198841D8688056832462B46DC
:10A4000021464046B1DF042804D0082804D00B2898
:10A4100008D002E0112000E00020002F00D10B2026
:10A42000BDE8FC810027A80701D50125E6E73443F4
:10A4300003D0002426460325E0E7064806494246A5
:10A44000401AC008012101EB0040044902F094F9D0
:10A45000E5E70000D0390300C8390300C025030038
:10A460002DE9FC41804600F045FBA0F57F41064602
:10A47000FF390ED001252A466D1C0027ADB26B4670
:10A480000821304603F012FF040006D0072C33D019
:10A4900033E043F20200BDE8FC81019903230A1D69
:10A4A0000B604046891DB2DF040004D00C2C09D09B
:10A4B000052C09D009E032460821104603F06EFF52
:10A4C00004461AE0012700E000240821304603F08A
:10A4D0005BFF70B102F042FD03460948094932466C
:10A4E000401AC008012101EB0040074902F04BF976
:10A4F0000324002FBFD100E00C242046CBE700004E
:10A50000D0390300C839030040250300044880887F
:10A51000A0F57F41FF3901D006F022B97047000055
:10A52000B42400200EB502A9019100F0E3FA6A46B6
:10A53000012103F071FE08B100200EBD01980078E2
:10A540000EBD00002DE9F04107464FF6FF7610489A
:10A55000B3DF78B102F002FD02460E480E49401A00
:10A56000C008012101EB00400C4902F005F903206D
:10A57000BDE8F081064C43F20305A41E3246618813
:10A580003846AFDFA842F3D16088401C6080F5E711
:10A59000B6240020D0390300C8390300F424030096
:10A5A000428800EB82020C328A4201D902207047B5
:10A5B0008188A1F57F42FF3A06D0018821B18068E9
:10A5C000401C01D00020704701207047884204D20F
:10A5D0000068401C01D0012070470020704770B512
:10A5E0000C468AB0064634F8300F8DF82000000A79
:10A5F0008DF82100A0788DF82200E0788DF82300F6
:10A60000042520216846FBF74AFF42F64A20ADF8B0
:10A6100000009DF80D00ADF8045040F002008DF8E8
:10A620000D0020798DF8110008A8ADF806500290B1
:10A63000308906F5B3726946FEF728FB0AB070BD93
:10A6400070B592B018212D48FBF729FF2B4803263F
:10A65000012506808570C5700224847144710471DF
:10A6600006818472C5728473447304730582867490
:10A67000C57484754475047548216846FBF70FFF5F
:10A680001F4800901F48019000201C4903918DF83D
:10A6900010008821ADF824101B498DF8080008919E
:10A6A0008DF809508DF80A600590079040F201116D
:10A6B0008DF81800ADF830108DF83F408DF832005D
:10A6C0008DF836008DF82C408DF83C400E908DF8BA
:10A6D00041408DF83D408DF833608DF834408DF861
:10A6E00040408DF83E4069460848FDF73DFD002892
:10A6F00001D0FCF7F9FB12B070BD0000F02600207D
:10A70000F5D90200E5090300F823002064220020A7
:10A7100000B585B00821034604914FF6FF7204A9E5
:10A72000684604F093FE08B1FCF7DEFB6846049926
:10A7300004F0CEF9002801D0FCF7D6FB05B000BD2F
:10A740003EB5027802230C46B3EB520F17D1B0F896
:10A750000110ADF80010C1788DF802108188ADF8B5
:10A76000041080798DF8060002AA01A92046FCF7A2
:10A77000F7FA032202A96846FBF7A3FE08B10020FE
:10A780003EBD01203EBD000070B50D4604461428B4
:10A7900010D2FDF781FA68B1084904EB840001EB9F
:10A7A0004000D0F802102960C188A980007AA87101
:10A7B000002070BD43F2020070BD0000942D002007
:10A7C00070B5018890B0102961D1011D2C22684616
:10A7D000FBF74CFE9DF804004FF6FF76032134464C
:10A7E000B1EB500F2BD003F09BFE9DF804006D469B
:10A7F00040080ED001280CD0022820D118E00D9975
:10A80000281D1131FCF700FA18B100BFBDF82C402B
:10A8100015E00CAA0BA9072003F056FE0028EED184
:10A820000DE00D99281D491CFFF78AFF0028EDD186
:10A830000CAA0BA9072003F047FE0028F1D1BDF8B0
:10A840000000B44200EB8001124820F8114000EBF8
:10A8500041000199C0F80210BDF80810C1809DF8B0
:10A860000A10017213D0BDF80000ADF82E000020D0
:10A87000ADF83040084E8DF82C000BAD044600BFFB
:10A8800056F8241028468847641C022CF8D310B0D0
:10A8900070BD0000942D0020441E03002DE9F041FE
:10A8A0004FF6FF760546B04213D00B4F002400BF91
:10A8B00004EB840037F81000A84206D12046FDF7CB
:10A8C000EBF910B12046BDE8F081641CA4B2142C51
:10A8D000EED33046F7E70000942D00202DE9F04339
:10A8E000CFB00E460746082903D907204FB0BDE870
:10A8F000F08317B30EB350204D90E846CDF830D119
:10A90000B82114A8FBF7CBFD002043AA0DF150019C
:10A91000C0EBC00303EB00130B4442F82030401C93
:10A920000828F5D32448254A0024801AC0080222AA
:10A93000C14602EB0045884636E00022114610462B
:10A940006FDFD3E750216846FBF7A9FD37F8140005
:10A950004DAB4BAA072103F0EBFD052810D00728CB
:10A960000ED09DF81100400812D0012810D037F801
:10A9700014202846124901F0FFFE43F20220B5E7F9
:10A9800037F8142028460F4901F0F6FE0520ADE700
:10A99000C4EBC40000EB041101EB0800172209F11D
:10A9A0000101FBF763FD641CB442CBD3F2B200217A
:10A9B00043A86FDF9AE70000D8390300C8390300C5
:10A9C00038260300C02603003EB50C46054603F0BA
:10A9D000A7FD0BE0BDF80000A04207D02846029971
:10A9E00000F00EF810B1BDF800003EBD01AA6946A6
:10A9F000072003F069FD0028ECD14FF6FF703EBD43
:10AA00002DE9F0410C46054600F1110701F1110650
:10AA10001022491C401CFBF754FD48B9681C00F08B
:10AA200087FA28B1601C00F083FA08B1012400E025
:10AA3000002431463846FCF7E7F83B780222B2EBB7
:10AA4000530F0CD00321B1EB530F08D03378B2EB86
:10AA5000530F04D0B1EB530F01D0012100E00021CE
:10AA6000084201D18C4302D00120BDE8F0810020D2
:10AA7000FBE7018811B9421892780AB101207047AA
:10AA8000491C0829F7D30020704710B50C4603462F
:10AA9000FFF7EFFF00280AD018882188884205D1E7
:10AAA0000822A11C981CFBF70CFD08B1002010BD6A
:10AAB000012010BD142804D2024A00EB800022F8C5
:10AAC00010107047942D002070B50546FFF7E6FE84
:10AAD0000446284603F0A4FB002808D1142C06D213
:10AAE000034B04EB84024FF6FF7123F8121070BD84
:10AAF000942D002010B50446142808D2FDF7CCF898
:10AB000028B1044904EB840031F8100010BD4FF661
:10AB1000FF7010BD942D00203EB5044603F000FDEB
:10AB20000EE0019920464631FFF7AFFF28B90199A1
:10AB300020462A31FFF7A9FF10B1BDF808003EBD3D
:10AB40006A4602A9072003F0BFFC0028E9D14FF6AE
:10AB5000FF703EBD7CB514460A000A49097802D050
:10AB600015688D4203D323B11D688D4201D20420A4
:10AB70007CBDCDE9004313460246034803F098FE2E
:10AB80007CBD0000C02400205C2E002070B50C4667
:10AB900006469AB010211848FBF781FC174800259B
:10ABA0002EB324B30470620031461348FBF75EFCF9
:10ABB000382102A81895FBF772FC009518AB02AA81
:10ABC00021463046019503F073FE00280DD110AAEE
:10ABD0000DF10801C0EBC0030B4442F82030401CCB
:10ABE0000828F7D3E1B210466EDF1AB070BD0570C9
:10ABF000002108466EDFF8E75C2E0020C02400200C
:10AC000010B50A4941600A4800F0C9FD58B902F080
:10AC100005F907491C238C22087404488C39001F4D
:10AC2000006800F022FD002010BD00001420030089
:10AC3000683300202DE9F0412D4F002520B17D60C3
:10AC40004FF40640BDE8F0810879012258B1294E41
:10AC500001280CD0264C4FF002080834022820D0DE
:10AC6000032841D127E00A7103F02EF93AE00020D1
:10AC700000EB800116F82110022908D0401C80B298
:10AC80000228F5D33A707D6041F61D50DAE700EBFB
:10AC9000800006F8205006EB8000406803F006F9BB
:10ACA00020E00D71A4F804800023012212482168DD
:10ACB00001F0A0F816E00D71206803F0F7F80D49D7
:10ACC00023682831498801EB810206EB8201D1F823
:10ACD00004C0C4F800C04B60A3880B81A4F80480B2
:10ACE00006F822500028ADD07D6048F20D60A9E73B
:10ACF0004826002094320020DC260020FEB50646BF
:10AD0000887A0D4670B3E86860B3002427E0E868ED
:10AD100000EBC403002002909DF8080040F0020000
:10AD20008DF80800597911B140F0080001E020F0D9
:10AD3000080040F010008DF8080004EB840006EBDA
:10AD40004000191D1430CDE9001033F8022B02A980
:10AD5000304605F0BBF8002805D1641CE4B2A87A9F
:10AD6000A042D4D80020FEBD0146034802888A4292
:10AD700000D0002070470000E82C00202DE9FC5F87
:10AD80000E008346DDE90C47C6F100009846924666
:10AD9000814600D40846012503E000BF90FBFAF08D
:10ADA0006D1C5045FADAA84500D9454624B1002E5D
:10ADB00001DB780700D5641EB80702D5B8F1000F93
:10ADC0000AD0F80708D13CB1A54205D22021584647
:10ADD000641EFDF783FEF6E7002E02DA4E462D21B3
:10ADE00002E0780703D52B215846FDF777FE07F0E0
:10ADF000030002280BD1B8F1000F08D13CB1A542E5
:10AE000005D230215846641EFDF768FEF6E7CDE90D
:10AE10000047434652463146584606F0F7FBBDE828
:10AE2000FC9F000070B50D46044600684FF4887121
:10AE300002F0B4F84FF49071206802F0AFF84FF4CC
:10AE40009271206802F0AAF84FF4A271206802F013
:10AE5000A5F84FF4AC71206802F0A0F82068114901
:10AE6000C0F804132068690740F30730090E002872
:10AE700006DA00F00F0000F1E02080F8141D03E076
:10AE800000F1E02080F800142068012140F3073031
:10AE900000F01F0291404009800000F1E020C0F85E
:10AEA000001170BD100342000246002012685307D3
:10AEB00013D502F00300012802D002280CD105E0CE
:10AEC000C2F383100B68801C184404E00223086856
:10AED00003EB925210440860012070470248007A48
:10AEE000002800D00120704768330020F0B5848826
:10AEF000A518944200D82246A41AC288D6189A42AD
:10AF000000D81346D21A4B880788BB420CD340881E
:10AF1000834209D88888A04206D3A84204D8C888AA
:10AF2000904201D3B04201D90020F0BD0120F0BD14
:10AF30000021425C0AB101207047491C1029F8D356
:10AF400000207047800701D0002070470120704723
:10AF50000348807810B10020FDF742BBFDF760BBCD
:10AF6000842400200348017AC90702D00078FDF745
:10AF700083BC704784240020172101804180002178
:10AF8000017141711B218171C17170472DE9FE4F23
:10AF90002E4F984692460D00814601D000260DE0C6
:10AFA000684600F01FFB6A460021484603F090F80F
:10AFB0003878009E10B99DF8090098B15246314684
:10AFC000484605F02FFF0446014600224846FEF79A
:10AFD00087FE0D2C37D008DCA4B3082C33D00B2C03
:10AFE00009D130E00520BDE8FE8F112C1ED0A4F55C
:10AFF0004050023827D0204601F0B0FF02461448E6
:10B0000014494B46401AC008012101EB0040124987
:10B0100001F0B9FB5FF00305B8F1000F04D0324630
:10B0200021464846FEF70CFB2846DCE72A46F9781D
:10B030004846FCF715FE5246B9784846FCF710FE24
:10B040000025E9E7FFE72546E6E700005025002058
:10B05000103A0300C83903004031030070B50E46B2
:10B060000C49154604460978FCF7E2FD00280FD08C
:10B07000204602F0D3FF00282A463146204603D05E
:10B08000BDE8704002F0D0BFBDE87040FEF738BAAE
:10B0900070BD00004825002070B5094D0646A9780E
:10B0A000FCF7C6FD0446E9783046FCF7C1FD0146D1
:10B0B00022463046BDE870400123FFF767BF00001D
:10B0C00050250020F0B585B00546002714216846BC
:10B0D000FBF7E5F9A5F57F40ADF80250FF3825D024
:10B0E0002846FFF775F9040022D01B481B49401A77
:10B0F000C6080B2C22D0112C1ED0A4F540500238CB
:10B100000ED0204601F02AFF0246012000EB064047
:10B110002B46134901F037FB2146284605F0CEFAAD
:10B1200010483A4681782846FCF79AFD05B0F0BDF4
:10B130000E208DF800000BE00127F1E70F208DF8BD
:10B140000000022000EB06402A46074901F014FBEC
:10B150006846FEF745FBE3E7C8390300C83903003A
:10B16000C8230300A42400201C2403000A4602492B
:10B170004978FCF775BD0000A42400202DE9F041BA
:10B18000002786B080463E46FFF76AF9040022D0C9
:10B19000112C22D01B481C49401AC508862C1ED0F1
:10B1A000A4F5405002380ED0204601F0D7FE0246EA
:10B1B000012000EB0540434614A101F0E4FA2146CA
:10B1C000404605F07BFA39464046FFF7CFFF06B010
:10B1D0003046BDE8F0810126F5E70127F3E71422A8
:10B1E0001A496846FBF742F90220ADF8028000EBED
:10B1F0000540424616A101F0BFFA6846FEF7F0FA94
:10B20000E1E70000C8390300C83903006773636DC4
:10B210005F6C6F63616C5F64625F63616368655FED
:10B2200075706461746528292072657475726E6525
:10B230006420257320666F7220636F6E6E5F686195
:10B240006E646C653A20256400000000F01D030068
:10B25000466C6173682066756C6C2E20436F756C4C
:10B2600064206E6F742073746F7265206461746102
:10B2700020666F7220636F6E6E5F68616E646C65CE
:10B280003A202564000000002DE9FF4100262348F4
:10B2900000F082FA2148001F074600F07DFA204C9A
:10B2A00060680090A56800E000986946284004EBBB
:10B2B00080000C30FFF7F8FD0028F5D101AA0099B5
:10B2C00001EA050304EB8303491CDB6842F82030E4
:10B2D000401C00910228F2D3019800F003000128DD
:10B2E0000BD0022810D10198032101EB9050009956
:10B2F000BDF80A6001EB900005E00198BDF80A6016
:10B30000C0F3831008440090384600F042FA08B1B8
:10B310000098606004B03046BDE8F081A03800209D
:10B320008834002088B0FBF783FE08B1FBF7DCFD12
:10B3300034490320FDF756FA08B1FBF7D5FD6946FD
:10B340000020FDF77FF908B1FBF7CEFD9DF8000066
:10B35000022854D05FF0000501F07EFB08B1FBF736
:10B36000C3FD01F00FFD08B1FBF7BEFD00246946E7
:10B370000120009401F096FB08B1FBF7B5FD68468B
:10B3800001F010FC08B1FBF7AFFD1F4A0A210820AD
:10B39000FBF726FE08B1FBF7A7FDFEF7D5FC1A4820
:10B3A0000021B03000F076FA08B1FBF79DFDFBF705
:10B3B00073FC05F019FB1C216846FBF770F84FF48D
:10B3C000A030CDE900404FF4F020029003208DF82A
:10B3D0000C000E48ADF80E408DF81040CDE9054048
:10B3E0006846FCF771FB08B1FBF77EFD03F02AFA13
:10B3F0002846FBF79FFC00BFFBF7D2FDFCE70125C9
:10B40000AAE7000019870200082700207F8F0200AA
:10B41000002360F30F03184661F3174062F31F60C7
:10B42000704770B5144682880E4605462088111D67
:10B430000144921C994201D8FE2A01D90C2070BD0A
:10B44000521C32542088FF21401C80B2208031548D
:10B450002088401C80B220808119288806F0C1F81D
:10B460002188084480B22080AA8842B1A96841B1ED
:10B470003044FAF7FBFF2088A98808442080002088
:10B4800070BD072070BD2DE9F047C5881E1DB6FBB5
:10B49000F5F78946B6FBF5F1044605FB176C4079D4
:10B4A00016686843DDF820A0F718001F874200D90E
:10B4B000C61A166001E02468491E0029FBD1A5EBDD
:10B4C0000C078846B74216D818E004EB0C00001DA4
:10B4D00009EB0803BAF1000F3A4602D001461846BC
:10B4E00000E01946FAF7C2FF2468F61B4FF0000C83
:10B4F000B844B54201D9374600E02F46002EE4D1CA
:10B50000BDE8F08730B5024651B101F0AFF9002136
:10B51000074C08E034F821301568AB4202D11160C5
:10B52000002030BD491C8142F4D3052030BD00000D
:10B5300000000000BFF35F8F00F016B9F8B50F46AA
:10B54000017814460546012901D1687830B1208878
:10B55000821C9A4232D8012902D006E00720F8BDA9
:10B5600069780144891C994228D8181A801E86B22D
:10B57000ADF800602188B81C084469467DDF0028CA
:10B58000EDD12978022904D06878BDF800209042D6
:10B5900005D3BDF80000B04201D809200AE0082018
:10B5A000012905D16978B14202D8ADF8001001E057
:10B5B000ADF80060BDF80010FE2901D90C20F8BDDF
:10B5C0002288491CB9542188491C89B221807854A9
:10B5D0002088401C2080BDF80010084420800020F6
:10B5E000F8BD0000034A00219268C0E90021816093
:10B5F000704700005025002070B586B00D46064605
:10B60000144614216846FAF74AFF8DF80050ADF849
:10B6100002402046FFF76EFAADF804001422694696
:10B620003046FAF723FF06B070BD70B54FF6FF75D0
:10B630000E46A84201D1002000E0401C84B208E080
:10B640002146304600F090F808B1204670BD641CD9
:10B65000A4B2FF2CF4D9284670BD10B5FAF725FE28
:10B6600008B1002010BD112010BD10B531B1B2FBE2
:10B67000F3F403FB14241CB1092010BD0E2010BDEF
:10B6800001600021416081608281C381084610BD54
:10B6900070B50C460546FAF7BDFD002802D021889A
:10B6A0002868084470BD10B50A8849888A4203D1C9
:10B6B000FAF7F2FD012010BD002010BD70B50C4658
:10B6C0000546FAF7CCFD002802D0618828680844B6
:10B6D00070BD10B50A8849888A4203D1FAF7B6FDD1
:10B6E000012010BD002010BD01F01F0301229A406F
:10B6F000D243490900EB8100114600F059B80A46CF
:10B7000001F01F030121994010B552090C4600EBCE
:10B71000820000F05DF8204000D0012010BD2DE92E
:10B72000F04180460D460024481E012101EB5017D0
:10B7300016E058F82400C04390FAA0F0B0FA80F068
:10B7400020280CD200EB4416AE4208D231464046C7
:10B75000FFF7D5FF0028ECD13046BDE8F081641C2E
:10B76000A742E6D82846F8E74A0950F8220001F037
:10B770001F0201219140084000D00120704701F0D4
:10B780001F0301229A40490900EB8100114600F095
:10B7900029B8002100F017B8012100F023B80121D9
:10B7A00000F016B808B56A46FAF7CBFD009808BD58
:10B7B00008B56A46FAF7ABFD009808BD08B56A46B9
:10B7C000FAF7BFFD08BD08B56A46FAF7A0FD08BD47
:10B7D00008B56A46FAF78EFD08BD08B56A46FAF75D
:10B7E0007DFD08BD08B56A46FAF784FD009808BDDE
:10B7F00008B56A46FAF7B2FD009808BD38B50446A8
:10B8000000258DF800506846FBF75EFC21686268F1
:10B81000086890420ED9401E08600178238AE268C9
:10B8200001FB0325227A2168101AC0B20A798242EC
:10B8300000D208719DF80000FBF76AFC284638BD6D
:10B8400038B5054600208DF800000C466846FBF729
:10B850003BFCE868298A201AB0FBF1F12A681068DD
:10B86000431C136001709DF80000FBF751FC38BDCC
:10B87000C20800F007030120895C98400840704727
:10B8800010B5C20800F00703885C01249C402043E7
:10B89000885410BD10B560B10161172120F8021B5A
:10B8A00020F8021B1B2100F8021BFFF765FB00209C
:10B8B00010BD0E2010BD0000F0B5858893B00C4679
:10B8C000002D39D1018800263F4F24293BD006DCCA
:10B8D000102909D011290CD0232958D14FE03A2939
:10B8E0000BD0552953D129E00146204601F0D8FF5D
:10B8F0004DE0A01DFFF740FB49E02246408934F8A7
:10B90000061F814200D808466080172800D2172001
:10B910006080106970B1607960B1D7E90001CDE94C
:10B920000301ADF80E506088ADF81000136903A94B
:10B93000104698476671267113B0F0BD0146204647
:10B9400002F002F823E0011D2C2206A8FAF78EFD72
:10B95000BDF81800BDF81C2004EBC0014A73226931
:10B96000AAB1D7E90423CDE90423ADF81200487B3E
:10B970008DF814002269204604A9904707E0017A57
:10B98000207B884200D201462846FDF743FBA07A7F
:10B990000028D1D0E1882846A5DF012580B11128F3
:10B9A000CAD001F0DBFA02460848094913B0401A30
:10B9B000C00805EB0040BDE8F04006A100F0DCBE89
:10B9C000A672E572B8E700004C1E0300E0390300E0
:10B9D000C839030073645F626C655F676174746388
:10B9E0005F65786368616E67655F6D74755F7265CA
:10B9F000717565737428292072657475726E65643B
:10BA00002025732E0000000020B10278DE2A03D02A
:10BA1000082070470E20704741800020704760B1B9
:10BA200059B10278DE2A0AD009684160DE2101702E
:10BA30004FF6FF714180002070470E2070470820AC
:10BA400070477FB5054600294DD0002D4BD00878B2
:10BA50000C46DE2847D1A8886188884202D120465A
:10BA600005F08CFE2888012825D002283BD011281B
:10BA70003AD0512837D135F8040F6188884232D145
:10BA8000A978A81C02292ED1017A042903D00629FD
:10BA900001D0052927D10021009102228DF8002034
:10BAA00001914FF4C07202910391ADF80420007A25
:10BAB00005280FD010E0297A2046012913D1A98842
:10BAC000428891420FD10121017204B0BDE870405B
:10BAD00005F054BEADF8041028886946B0DF002890
